{
  "_format": "hh-sol-artifact-1",
  "contractName": "MVerse",
  "sourceName": "contracts/MVerse.sol",
  "abi": [
    {
      "inputs": [],
      "stateMutability": "nonpayable",
      "type": "constructor"
    },
    {
      "anonymous": false,
      "inputs": [
        {
          "indexed": true,
          "internalType": "address",
          "name": "owner",
          "type": "address"
        },
        {
          "indexed": true,
          "internalType": "address",
          "name": "approved",
          "type": "address"
        },
        {
          "indexed": true,
          "internalType": "uint256",
          "name": "tokenId",
          "type": "uint256"
        }
      ],
      "name": "Approval",
      "type": "event"
    },
    {
      "anonymous": false,
      "inputs": [
        {
          "indexed": true,
          "internalType": "address",
          "name": "owner",
          "type": "address"
        },
        {
          "indexed": true,
          "internalType": "address",
          "name": "operator",
          "type": "address"
        },
        {
          "indexed": false,
          "internalType": "bool",
          "name": "approved",
          "type": "bool"
        }
      ],
      "name": "ApprovalForAll",
      "type": "event"
    },
    {
      "anonymous": false,
      "inputs": [
        {
          "indexed": true,
          "internalType": "address",
          "name": "previousOwner",
          "type": "address"
        },
        {
          "indexed": true,
          "internalType": "address",
          "name": "newOwner",
          "type": "address"
        }
      ],
      "name": "OwnershipTransferred",
      "type": "event"
    },
    {
      "anonymous": false,
      "inputs": [
        {
          "indexed": true,
          "internalType": "address",
          "name": "from",
          "type": "address"
        },
        {
          "indexed": true,
          "internalType": "address",
          "name": "to",
          "type": "address"
        },
        {
          "indexed": true,
          "internalType": "uint256",
          "name": "tokenId",
          "type": "uint256"
        }
      ],
      "name": "Transfer",
      "type": "event"
    },
    {
      "inputs": [
        {
          "internalType": "address",
          "name": "to",
          "type": "address"
        },
        {
          "internalType": "uint256",
          "name": "tokenId",
          "type": "uint256"
        }
      ],
      "name": "approve",
      "outputs": [],
      "stateMutability": "nonpayable",
      "type": "function"
    },
    {
      "inputs": [
        {
          "internalType": "address",
          "name": "owner",
          "type": "address"
        }
      ],
      "name": "balanceOf",
      "outputs": [
        {
          "internalType": "uint256",
          "name": "",
          "type": "uint256"
        }
      ],
      "stateMutability": "view",
      "type": "function"
    },
    {
      "inputs": [
        {
          "internalType": "uint256",
          "name": "",
          "type": "uint256"
        }
      ],
      "name": "buildings",
      "outputs": [
        {
          "internalType": "string",
          "name": "name",
          "type": "string"
        },
        {
          "internalType": "int8",
          "name": "w",
          "type": "int8"
        },
        {
          "internalType": "int8",
          "name": "h",
          "type": "int8"
        },
        {
          "internalType": "int8",
          "name": "d",
          "type": "int8"
        },
        {
          "internalType": "int8",
          "name": "x",
          "type": "int8"
        },
        {
          "internalType": "int8",
          "name": "y",
          "type": "int8"
        },
        {
          "internalType": "int8",
          "name": "z",
          "type": "int8"
        }
      ],
      "stateMutability": "view",
      "type": "function"
    },
    {
      "inputs": [],
      "name": "cost",
      "outputs": [
        {
          "internalType": "uint256",
          "name": "",
          "type": "uint256"
        }
      ],
      "stateMutability": "view",
      "type": "function"
    },
    {
      "inputs": [
        {
          "internalType": "uint256",
          "name": "tokenId",
          "type": "uint256"
        }
      ],
      "name": "getApproved",
      "outputs": [
        {
          "internalType": "address",
          "name": "",
          "type": "address"
        }
      ],
      "stateMutability": "view",
      "type": "function"
    },
    {
      "inputs": [],
      "name": "getBuilding",
      "outputs": [
        {
          "components": [
            {
              "internalType": "string",
              "name": "name",
              "type": "string"
            },
            {
              "internalType": "int8",
              "name": "w",
              "type": "int8"
            },
            {
              "internalType": "int8",
              "name": "h",
              "type": "int8"
            },
            {
              "internalType": "int8",
              "name": "d",
              "type": "int8"
            },
            {
              "internalType": "int8",
              "name": "x",
              "type": "int8"
            },
            {
              "internalType": "int8",
              "name": "y",
              "type": "int8"
            },
            {
              "internalType": "int8",
              "name": "z",
              "type": "int8"
            }
          ],
          "internalType": "struct MVerse.Building[]",
          "name": "",
          "type": "tuple[]"
        }
      ],
      "stateMutability": "view",
      "type": "function"
    },
    {
      "inputs": [],
      "name": "hiddenMetadataUri",
      "outputs": [
        {
          "internalType": "string",
          "name": "",
          "type": "string"
        }
      ],
      "stateMutability": "view",
      "type": "function"
    },
    {
      "inputs": [
        {
          "internalType": "address",
          "name": "owner",
          "type": "address"
        },
        {
          "internalType": "address",
          "name": "operator",
          "type": "address"
        }
      ],
      "name": "isApprovedForAll",
      "outputs": [
        {
          "internalType": "bool",
          "name": "",
          "type": "bool"
        }
      ],
      "stateMutability": "view",
      "type": "function"
    },
    {
      "inputs": [],
      "name": "maxMintAmountPerTx",
      "outputs": [
        {
          "internalType": "uint256",
          "name": "",
          "type": "uint256"
        }
      ],
      "stateMutability": "view",
      "type": "function"
    },
    {
      "inputs": [],
      "name": "maxSupply",
      "outputs": [
        {
          "internalType": "uint256",
          "name": "",
          "type": "uint256"
        }
      ],
      "stateMutability": "view",
      "type": "function"
    },
    {
      "inputs": [
        {
          "internalType": "uint256",
          "name": "_mintAmount",
          "type": "uint256"
        }
      ],
      "name": "mint",
      "outputs": [],
      "stateMutability": "payable",
      "type": "function"
    },
    {
      "inputs": [
        {
          "internalType": "uint256",
          "name": "_mintAmount",
          "type": "uint256"
        },
        {
          "internalType": "address",
          "name": "_receiver",
          "type": "address"
        }
      ],
      "name": "mintForAddress",
      "outputs": [],
      "stateMutability": "nonpayable",
      "type": "function"
    },
    {
      "inputs": [],
      "name": "name",
      "outputs": [
        {
          "internalType": "string",
          "name": "",
          "type": "string"
        }
      ],
      "stateMutability": "view",
      "type": "function"
    },
    {
      "inputs": [],
      "name": "owner",
      "outputs": [
        {
          "internalType": "address",
          "name": "",
          "type": "address"
        }
      ],
      "stateMutability": "view",
      "type": "function"
    },
    {
      "inputs": [
        {
          "internalType": "uint256",
          "name": "tokenId",
          "type": "uint256"
        }
      ],
      "name": "ownerOf",
      "outputs": [
        {
          "internalType": "address",
          "name": "",
          "type": "address"
        }
      ],
      "stateMutability": "view",
      "type": "function"
    },
    {
      "inputs": [],
      "name": "paused",
      "outputs": [
        {
          "internalType": "bool",
          "name": "",
          "type": "bool"
        }
      ],
      "stateMutability": "view",
      "type": "function"
    },
    {
      "inputs": [],
      "name": "renounceOwnership",
      "outputs": [],
      "stateMutability": "nonpayable",
      "type": "function"
    },
    {
      "inputs": [],
      "name": "revealed",
      "outputs": [
        {
          "internalType": "bool",
          "name": "",
          "type": "bool"
        }
      ],
      "stateMutability": "view",
      "type": "function"
    },
    {
      "inputs": [
        {
          "internalType": "address",
          "name": "from",
          "type": "address"
        },
        {
          "internalType": "address",
          "name": "to",
          "type": "address"
        },
        {
          "internalType": "uint256",
          "name": "tokenId",
          "type": "uint256"
        }
      ],
      "name": "safeTransferFrom",
      "outputs": [],
      "stateMutability": "nonpayable",
      "type": "function"
    },
    {
      "inputs": [
        {
          "internalType": "address",
          "name": "from",
          "type": "address"
        },
        {
          "internalType": "address",
          "name": "to",
          "type": "address"
        },
        {
          "internalType": "uint256",
          "name": "tokenId",
          "type": "uint256"
        },
        {
          "internalType": "bytes",
          "name": "_data",
          "type": "bytes"
        }
      ],
      "name": "safeTransferFrom",
      "outputs": [],
      "stateMutability": "nonpayable",
      "type": "function"
    },
    {
      "inputs": [
        {
          "internalType": "address",
          "name": "operator",
          "type": "address"
        },
        {
          "internalType": "bool",
          "name": "approved",
          "type": "bool"
        }
      ],
      "name": "setApprovalForAll",
      "outputs": [],
      "stateMutability": "nonpayable",
      "type": "function"
    },
    {
      "inputs": [
        {
          "internalType": "uint256",
          "name": "_cost",
          "type": "uint256"
        }
      ],
      "name": "setCost",
      "outputs": [],
      "stateMutability": "nonpayable",
      "type": "function"
    },
    {
      "inputs": [
        {
          "internalType": "string",
          "name": "_hiddenMetadataUri",
          "type": "string"
        }
      ],
      "name": "setHiddenMetadataUri",
      "outputs": [],
      "stateMutability": "nonpayable",
      "type": "function"
    },
    {
      "inputs": [
        {
          "internalType": "uint256",
          "name": "_maxMintAmountPerTx",
          "type": "uint256"
        }
      ],
      "name": "setMaxMintAmountPerTx",
      "outputs": [],
      "stateMutability": "nonpayable",
      "type": "function"
    },
    {
      "inputs": [
        {
          "internalType": "bool",
          "name": "_state",
          "type": "bool"
        }
      ],
      "name": "setPaused",
      "outputs": [],
      "stateMutability": "nonpayable",
      "type": "function"
    },
    {
      "inputs": [
        {
          "internalType": "bool",
          "name": "_state",
          "type": "bool"
        }
      ],
      "name": "setRevealed",
      "outputs": [],
      "stateMutability": "nonpayable",
      "type": "function"
    },
    {
      "inputs": [
        {
          "internalType": "string",
          "name": "_uriPrefix",
          "type": "string"
        }
      ],
      "name": "setUriPrefix",
      "outputs": [],
      "stateMutability": "nonpayable",
      "type": "function"
    },
    {
      "inputs": [
        {
          "internalType": "string",
          "name": "_uriSuffix",
          "type": "string"
        }
      ],
      "name": "setUriSuffix",
      "outputs": [],
      "stateMutability": "nonpayable",
      "type": "function"
    },
    {
      "inputs": [
        {
          "internalType": "bytes4",
          "name": "interfaceId",
          "type": "bytes4"
        }
      ],
      "name": "supportsInterface",
      "outputs": [
        {
          "internalType": "bool",
          "name": "",
          "type": "bool"
        }
      ],
      "stateMutability": "view",
      "type": "function"
    },
    {
      "inputs": [],
      "name": "symbol",
      "outputs": [
        {
          "internalType": "string",
          "name": "",
          "type": "string"
        }
      ],
      "stateMutability": "view",
      "type": "function"
    },
    {
      "inputs": [
        {
          "internalType": "uint256",
          "name": "_tokenId",
          "type": "uint256"
        }
      ],
      "name": "tokenURI",
      "outputs": [
        {
          "internalType": "string",
          "name": "",
          "type": "string"
        }
      ],
      "stateMutability": "view",
      "type": "function"
    },
    {
      "inputs": [],
      "name": "totalSupply",
      "outputs": [
        {
          "internalType": "uint256",
          "name": "",
          "type": "uint256"
        }
      ],
      "stateMutability": "view",
      "type": "function"
    },
    {
      "inputs": [
        {
          "internalType": "address",
          "name": "from",
          "type": "address"
        },
        {
          "internalType": "address",
          "name": "to",
          "type": "address"
        },
        {
          "internalType": "uint256",
          "name": "tokenId",
          "type": "uint256"
        }
      ],
      "name": "transferFrom",
      "outputs": [],
      "stateMutability": "nonpayable",
      "type": "function"
    },
    {
      "inputs": [
        {
          "internalType": "address",
          "name": "newOwner",
          "type": "address"
        }
      ],
      "name": "transferOwnership",
      "outputs": [],
      "stateMutability": "nonpayable",
      "type": "function"
    },
    {
      "inputs": [],
      "name": "uriPrefix",
      "outputs": [
        {
          "internalType": "string",
          "name": "",
          "type": "string"
        }
      ],
      "stateMutability": "view",
      "type": "function"
    },
    {
      "inputs": [],
      "name": "uriSuffix",
      "outputs": [
        {
          "internalType": "string",
          "name": "",
          "type": "string"
        }
      ],
      "stateMutability": "view",
      "type": "function"
    },
    {
      "inputs": [
        {
          "internalType": "address",
          "name": "_owner",
          "type": "address"
        }
      ],
      "name": "walletOfOwner",
      "outputs": [
        {
          "internalType": "uint256[]",
          "name": "",
          "type": "uint256[]"
        }
      ],
      "stateMutability": "view",
      "type": "function"
    },
    {
      "inputs": [],
      "name": "withdraw",
      "outputs": [],
      "stateMutability": "nonpayable",
      "type": "function"
    }
  ],
  "bytecode": "0x60a06040819052600060808190526200001b916008916200161d565b5060408051808201909152600580825264173539b7b760d91b60209092019182526200004a916009916200161d565b506000600b55600c80556005600d55600e805461ffff191690553480156200007157600080fd5b5060408051808201825260068152654d566572736560d01b6020808301918252835180850190945260038452624d565360e81b908401528151919291620000bb916000916200161d565b508051620000d19060019060208401906200161d565b505050620000ee620000e86200154f60201b60201c565b62001553565b60408051808201909152601a81527f697066733a2f2f5f5f4349445f5f2f68696464656e2e6a736f6e00000000000060208201526200012d90620015a5565b6040805161012081018252600460e08201908152635a45524f60e01b610100830152815260006020808301829052928201819052606082018190526080820181905260a0820181905260c08201819052600f8054600181018255915281518051929360029092027f8d1108e10bcb7c27dddfc02ed9d693a074039d026cf4ea4240b40f7d581ac8020192620001c692849201906200161d565b5060208201518160010160006101000a81548160ff021916908360000b60ff16021790555060408201518160010160016101000a81548160ff021916908360000b60ff16021790555060608201518160010160026101000a81548160ff021916908360000b60ff16021790555060808201518160010160036101000a81548160ff021916908360000b60ff16021790555060a08201518160010160046101000a81548160ff021916908360000b60ff16021790555060c08201518160010160056101000a81548160ff021916908360000b60ff1602179055505050600f6040518060e0016040528060405180604001604052806005815260200164486f75736560d81b8152508152602001600160000b8152602001600360000b8152602001600260000b8152602001600260000b81526020016000800b8152602001600360000b81525090806001815401808255809150506001900390600052602060002090600202016000909190919091506000820151816000019080519060200190620003519291906200161d565b5060208201518160010160006101000a81548160ff021916908360000b60ff16021790555060408201518160010160016101000a81548160ff021916908360000b60ff16021790555060608201518160010160026101000a81548160ff021916908360000b60ff16021790555060808201518160010160036101000a81548160ff021916908360000b60ff16021790555060a08201518160010160046101000a81548160ff021916908360000b60ff16021790555060c08201518160010160056101000a81548160ff021916908360000b60ff1602179055505050600f6040518060e001604052806040518060400160405280600e81526020016d4d61736b6f6e646920486f75736560901b8152508152602001600260000b8152602001600560000b8152602001600460000b8152602001600a60000b81526020016000800b8152602001600660000b81525090806001815401808255809150506001900390600052602060002090600202016000909190919091506000820151816000019080519060200190620004e59291906200161d565b5060208201518160010160006101000a81548160ff021916908360000b60ff16021790555060408201518160010160016101000a81548160ff021916908360000b60ff16021790555060608201518160010160026101000a81548160ff021916908360000b60ff16021790555060808201518160010160036101000a81548160ff021916908360000b60ff16021790555060a08201518160010160046101000a81548160ff021916908360000b60ff16021790555060c08201518160010160056101000a81548160ff021916908360000b60ff1602179055505050600f6040518060e001604052806040518060400160405280600d81526020016c5368726179657320486f75736560981b8152508152602001600160000b8152602001600660000b8152602001600260000b8152602001600a60000b81526020016000800b81526020016000800b81525090806001815401808255809150506001900390600052602060002090600202016000909190919091506000820151816000019080519060200190620006779291906200161d565b5060208201518160010160006101000a81548160ff021916908360000b60ff16021790555060408201518160010160016101000a81548160ff021916908360000b60ff16021790555060608201518160010160026101000a81548160ff021916908360000b60ff16021790555060808201518160010160036101000a81548160ff021916908360000b60ff16021790555060a08201518160010160046101000a81548160ff021916908360000b60ff16021790555060c08201518160010160056101000a81548160ff021916908360000b60ff1602179055505050600f6040518060e001604052806040518060400160405280600c81526020016b44696e65736820486f75736560a01b8152508152602001600160000b8152602001600160000b8152602001600260000b8152602001600760000b81526020016000800b815260200160061960000b815250908060018154018082558091505060019003906000526020600020906002020160009091909190915060008201518160000190805190602001906200080a9291906200161d565b5060208201518160010160006101000a81548160ff021916908360000b60ff16021790555060408201518160010160016101000a81548160ff021916908360000b60ff16021790555060608201518160010160026101000a81548160ff021916908360000b60ff16021790555060808201518160010160036101000a81548160ff021916908360000b60ff16021790555060a08201518160010160046101000a81548160ff021916908360000b60ff16021790555060c08201518160010160056101000a81548160ff021916908360000b60ff1602179055505050600f6040518060e001604052806040518060400160405280600b81526020016a53756d616e20486f75736560a81b8152508152602001600260000b8152602001600360000b8152602001600160000b815260200160081960000b81526020016000800b815260200160081960000b815250908060018154018082558091505060019003906000526020600020906002020160009091909190915060008201518160000190805190602001906200099d9291906200161d565b5060208201518160010160006101000a81548160ff021916908360000b60ff16021790555060408201518160010160016101000a81548160ff021916908360000b60ff16021790555060608201518160010160026101000a81548160ff021916908360000b60ff16021790555060808201518160010160036101000a81548160ff021916908360000b60ff16021790555060a08201518160010160046101000a81548160ff021916908360000b60ff16021790555060c08201518160010160056101000a81548160ff021916908360000b60ff1602179055505050600f6040518060e001604052806040518060400160405280600b81526020016a4d6164687520486f75736560a81b8152508152602001600160000b8152602001600360000b8152602001600360000b815260200160031960000b81526020016000800b8152602001600260000b8152509080600181540180825580915050600190039060005260206000209060020201600090919091909150600082015181600001908051906020019062000b2f9291906200161d565b5060208201518160010160006101000a81548160ff021916908360000b60ff16021790555060408201518160010160016101000a81548160ff021916908360000b60ff16021790555060608201518160010160026101000a81548160ff021916908360000b60ff16021790555060808201518160010160036101000a81548160ff021916908360000b60ff16021790555060a08201518160010160046101000a81548160ff021916908360000b60ff16021790555060c08201518160010160056101000a81548160ff021916908360000b60ff1602179055505050600f6040518060e001604052806040518060400160405280600d81526020016c4b726973686e6120486f75736560981b8152508152602001600260000b8152602001600560000b8152602001600260000b815260200160011960000b81526020016000800b8152602001600560000b8152509080600181540180825580915050600190039060005260206000209060020201600090919091909150600082015181600001908051906020019062000cc39291906200161d565b5060208201518160010160006101000a81548160ff021916908360000b60ff16021790555060408201518160010160016101000a81548160ff021916908360000b60ff16021790555060608201518160010160026101000a81548160ff021916908360000b60ff16021790555060808201518160010160036101000a81548160ff021916908360000b60ff16021790555060a08201518160010160046101000a81548160ff021916908360000b60ff16021790555060c08201518160010160056101000a81548160ff021916908360000b60ff1602179055505050600f6040518060e001604052806040518060400160405280600d81526020016c446861726d656e20486f75736560981b8152508152602001600260000b8152602001600660000b8152602001600160000b815260200160091960000b81526020016000800b8152602001600460000b8152509080600181540180825580915050600190039060005260206000209060020201600090919091909150600082015181600001908051906020019062000e579291906200161d565b5060208201518160010160006101000a81548160ff021916908360000b60ff16021790555060408201518160010160016101000a81548160ff021916908360000b60ff16021790555060608201518160010160026101000a81548160ff021916908360000b60ff16021790555060808201518160010160036101000a81548160ff021916908360000b60ff16021790555060a08201518160010160046101000a81548160ff021916908360000b60ff16021790555060c08201518160010160056101000a81548160ff021916908360000b60ff1602179055505050600f6040518060e00160405280604051806040016040528060078152602001664c69627261727960c81b8152508152602001600460000b8152602001600160000b8152602001600460000b8152602001600560000b81526020016000800b81526020016000800b8152509080600181540180825580915050600190039060005260206000209060020201600090919091909150600082015181600001908051906020019062000fe39291906200161d565b5060208201518160010160006101000a81548160ff021916908360000b60ff16021790555060408201518160010160016101000a81548160ff021916908360000b60ff16021790555060608201518160010160026101000a81548160ff021916908360000b60ff16021790555060808201518160010160036101000a81548160ff021916908360000b60ff16021790555060a08201518160010160046101000a81548160ff021916908360000b60ff16021790555060c08201518160010160056101000a81548160ff021916908360000b60ff1602179055505050600f6040518060e001604052806040518060400160405280600b81526020016a426561636820486f75736560a81b8152508152602001600360000b8152602001600160000b8152602001600360000b815260200160031960000b81526020016000800b815260200160041960000b81525090806001815401808255809150506001900390600052602060002090600202016000909190919091506000820151816000019080519060200190620011769291906200161d565b5060208201518160010160006101000a81548160ff021916908360000b60ff16021790555060408201518160010160016101000a81548160ff021916908360000b60ff16021790555060608201518160010160026101000a81548160ff021916908360000b60ff16021790555060808201518160010160036101000a81548160ff021916908360000b60ff16021790555060a08201518160010160046101000a81548160ff021916908360000b60ff16021790555060c08201518160010160056101000a81548160ff021916908360000b60ff1602179055505050600f6040518060e001604052806040518060400160405280600b81526020016a47686f737420486f75736560a81b8152508152602001600260000b8152602001600260000b8152602001600360000b815260200160091960000b81526020016000800b81526020016000800b81525090806001815401808255809150506001900390600052602060002090600202016000909190919091506000820151816000019080519060200190620013079291906200161d565b5060208201518160010160006101000a81548160ff021916908360000b60ff16021790555060408201518160010160016101000a81548160ff021916908360000b60ff16021790555060608201518160010160026101000a81548160ff021916908360000b60ff16021790555060808201518160010160036101000a81548160ff021916908360000b60ff16021790555060a08201518160010160046101000a81548160ff021916908360000b60ff16021790555060c08201518160010160056101000a81548160ff021916908360000b60ff1602179055505050600f6040518060e0016040528060405180604001604052806005815260200164486f75736560d81b8152508152602001600360000b8152602001600260000b8152602001600260000b815260200160021960000b81526020016000800b815260200160011960000b81525090806001815401808255809150506001900390600052602060002090600202016000909190919091506000820151816000019080519060200190620014949291906200161d565b506020820151600191909101805460408401516060850151608086015160a087015160c09097015160ff19909416600096870b60ff9081169190911761ff00191661010094880b8216949094029390931762ff000019166201000092870b8416929092029190911763ff0000001916630100000091860b8316919091021760ff60201b191664010000000095850b8216959095029490941760ff60281b1916650100000000009190930b939093169290920217905562001700565b3390565b600680546001600160a01b038381166001600160a01b0319831681179093556040519116919082907f8be0079c531659141344cd1fd0a4f28419497f9722a3daafe3b4186f6b6457e090600090a35050565b6006546001600160a01b03163314620016045760405162461bcd60e51b815260206004820181905260248201527f4f776e61626c653a2063616c6c6572206973206e6f7420746865206f776e6572604482015260640160405180910390fd5b80516200161990600a9060208401906200161d565b5050565b8280546200162b90620016c3565b90600052602060002090601f0160209004810192826200164f57600085556200169a565b82601f106200166a57805160ff19168380011785556200169a565b828001600101855582156200169a579182015b828111156200169a5782518255916020019190600101906200167d565b50620016a8929150620016ac565b5090565b5b80821115620016a85760008155600101620016ad565b600281046001821680620016d857607f821691505b60208210811415620016fa57634e487b7160e01b600052602260045260246000fd5b50919050565b61272f80620017106000396000f3fe6080604052600436106102255760003560e01c80636352211e11610123578063a45ba8e7116100ab578063dbd3100e1161006f578063dbd3100e14610628578063e0a808531461064a578063e985e9c51461066a578063efbd73f4146106b3578063f2fde38b146106d357610225565b8063a45ba8e71461059d578063b071401b146105b2578063b88d4fde146105d2578063c87b56dd146105f2578063d5abeb011461061257610225565b80638da5cb5b116100f25780638da5cb5b1461052157806394354fd01461053f57806395d89b4114610555578063a0712d681461056a578063a22cb4651461057d57610225565b80636352211e146104ac57806370a08231146104cc578063715018a6146104ec5780637ec4a6591461050157610225565b80633ccfd60b116101b15780634fdd43cb116101755780634fdd43cb1461042957806351830227146104495780635503a0e8146104685780635c975abb1461047d57806362b99ad41461049757610225565b80633ccfd60b1461037457806342842e0e14610389578063438b6300146103a957806344a0d68a146103d65780634c96a062146103f657610225565b806313faede6116101f857806313faede6146102db57806316ba10e0146102ff57806316c38b3c1461031f57806318160ddd1461033f57806323b872dd1461035457610225565b806301ffc9a71461022a57806306fdde031461025f578063081812fc14610281578063095ea7b3146102b9575b600080fd5b34801561023657600080fd5b5061024a610245366004612178565b6106f3565b60405190151581526020015b60405180910390f35b34801561026b57600080fd5b50610274610747565b6040516102569190612470565b34801561028d57600080fd5b506102a161029c3660046121f6565b6107d9565b6040516001600160a01b039091168152602001610256565b3480156102c557600080fd5b506102d96102d4366004612135565b610873565b005b3480156102e757600080fd5b506102f1600b5481565b604051908152602001610256565b34801561030b57600080fd5b506102d961031a3660046121b0565b610989565b34801561032b57600080fd5b506102d961033a36600461215e565b6109ca565b34801561034b57600080fd5b506102f1610a07565b34801561036057600080fd5b506102d961036f366004612058565b610a17565b34801561038057600080fd5b506102d9610a48565b34801561039557600080fd5b506102d96103a4366004612058565b610b60565b3480156103b557600080fd5b506103c96103c436600461200c565b610b7b565b604051610256919061242c565b3480156103e257600080fd5b506102d96103f13660046121f6565b610c78565b34801561040257600080fd5b506104166104113660046121f6565b610ca7565b6040516102569796959493929190612483565b34801561043557600080fd5b506102d96104443660046121b0565b610d9a565b34801561045557600080fd5b50600e5461024a90610100900460ff1681565b34801561047457600080fd5b50610274610dd7565b34801561048957600080fd5b50600e5461024a9060ff1681565b3480156104a357600080fd5b50610274610e65565b3480156104b857600080fd5b506102a16104c73660046121f6565b610e72565b3480156104d857600080fd5b506102f16104e736600461200c565b610ee9565b3480156104f857600080fd5b506102d9610f70565b34801561050d57600080fd5b506102d961051c3660046121b0565b610fa6565b34801561052d57600080fd5b506006546001600160a01b03166102a1565b34801561054b57600080fd5b506102f1600d5481565b34801561056157600080fd5b50610274610fe3565b6102d96105783660046121f6565b610ff2565b34801561058957600080fd5b506102d961059836600461210c565b611154565b3480156105a957600080fd5b5061027461115f565b3480156105be57600080fd5b506102d96105cd3660046121f6565b61116c565b3480156105de57600080fd5b506102d96105ed366004612093565b61119b565b3480156105fe57600080fd5b5061027461060d3660046121f6565b6111d3565b34801561061e57600080fd5b506102f1600c5481565b34801561063457600080fd5b5061063d611352565b604051610256919061235b565b34801561065657600080fd5b506102d961066536600461215e565b6114b8565b34801561067657600080fd5b5061024a610685366004612026565b6001600160a01b03918216600090815260056020908152604080832093909416825291909152205460ff1690565b3480156106bf57600080fd5b506102d96106ce36600461220e565b6114fc565b3480156106df57600080fd5b506102d96106ee36600461200c565b6115e2565b60006001600160e01b031982166380ac58cd60e01b148061072457506001600160e01b03198216635b5e139f60e01b145b8061073f57506301ffc9a760e01b6001600160e01b03198316145b90505b919050565b60606000805461075690612637565b80601f016020809104026020016040519081016040528092919081815260200182805461078290612637565b80156107cf5780601f106107a4576101008083540402835291602001916107cf565b820191906000526020600020905b8154815290600101906020018083116107b257829003601f168201915b5050505050905090565b6000818152600260205260408120546001600160a01b03166108575760405162461bcd60e51b815260206004820152602c60248201527f4552433732313a20617070726f76656420717565727920666f72206e6f6e657860448201526b34b9ba32b73a103a37b5b2b760a11b60648201526084015b60405180910390fd5b506000908152600460205260409020546001600160a01b031690565b600061087e82610e72565b9050806001600160a01b0316836001600160a01b031614156108ec5760405162461bcd60e51b815260206004820152602160248201527f4552433732313a20617070726f76616c20746f2063757272656e74206f776e656044820152603960f91b606482015260840161084e565b336001600160a01b038216148061090857506109088133610685565b61097a5760405162461bcd60e51b815260206004820152603860248201527f4552433732313a20617070726f76652063616c6c6572206973206e6f74206f7760448201527f6e6572206e6f7220617070726f76656420666f7220616c6c0000000000000000606482015260840161084e565b610984838361167d565b505050565b6006546001600160a01b031633146109b35760405162461bcd60e51b815260040161084e90612523565b80516109c6906009906020840190611ed6565b5050565b6006546001600160a01b031633146109f45760405162461bcd60e51b815260040161084e90612523565b600e805460ff1916911515919091179055565b6000610a1260075490565b905090565b610a2133826116eb565b610a3d5760405162461bcd60e51b815260040161084e90612558565b6109848383836117e2565b6006546001600160a01b03163314610a725760405162461bcd60e51b815260040161084e90612523565b600073943590a42c27d08e3744202c4ae5ed55c2de240d6064610a964760056125d5565b610aa091906125c1565b604051600081818185875af1925050503d8060008114610adc576040519150601f19603f3d011682016040523d82523d6000602084013e610ae1565b606091505b5050905080610aef57600080fd5b6000610b036006546001600160a01b031690565b6001600160a01b03164760405160006040518083038185875af1925050503d8060008114610b4d576040519150601f19603f3d011682016040523d82523d6000602084013e610b52565b606091505b50509050806109c657600080fd5b6109848383836040518060200160405280600081525061119b565b60606000610b8883610ee9565b905060008167ffffffffffffffff811115610bb357634e487b7160e01b600052604160045260246000fd5b604051908082528060200260200182016040528015610bdc578160200160208202803683370190505b509050600160005b8381108015610bf55750600c548211155b15610c6e576000610c0583610e72565b9050866001600160a01b0316816001600160a01b03161415610c5b5782848381518110610c4257634e487b7160e01b600052603260045260246000fd5b602090810291909101015281610c5781612672565b9250505b82610c6581612672565b93505050610be4565b5090949350505050565b6006546001600160a01b03163314610ca25760405162461bcd60e51b815260040161084e90612523565b600b55565b600f8181548110610cb757600080fd5b9060005260206000209060020201600091509050806000018054610cda90612637565b80601f0160208091040260200160405190810160405280929190818152602001828054610d0690612637565b8015610d535780601f10610d2857610100808354040283529160200191610d53565b820191906000526020600020905b815481529060010190602001808311610d3657829003601f168201915b50505060019093015491925050600081810b916101008104820b91620100008204810b9163010000008104820b916401000000008204810b91650100000000009004900b87565b6006546001600160a01b03163314610dc45760405162461bcd60e51b815260040161084e90612523565b80516109c690600a906020840190611ed6565b60098054610de490612637565b80601f0160208091040260200160405190810160405280929190818152602001828054610e1090612637565b8015610e5d5780601f10610e3257610100808354040283529160200191610e5d565b820191906000526020600020905b815481529060010190602001808311610e4057829003601f168201915b505050505081565b60088054610de490612637565b6000818152600260205260408120546001600160a01b03168061073f5760405162461bcd60e51b815260206004820152602960248201527f4552433732313a206f776e657220717565727920666f72206e6f6e657869737460448201526832b73a103a37b5b2b760b91b606482015260840161084e565b60006001600160a01b038216610f545760405162461bcd60e51b815260206004820152602a60248201527f4552433732313a2062616c616e636520717565727920666f7220746865207a65604482015269726f206164647265737360b01b606482015260840161084e565b506001600160a01b031660009081526003602052604090205490565b6006546001600160a01b03163314610f9a5760405162461bcd60e51b815260040161084e90612523565b610fa4600061197e565b565b6006546001600160a01b03163314610fd05760405162461bcd60e51b815260040161084e90612523565b80516109c6906008906020840190611ed6565b60606001805461075690612637565b806000811180156110055750600d548111155b6110485760405162461bcd60e51b8152602060048201526014602482015273496e76616c6964206d696e7420616d6f756e742160601b604482015260640161084e565b600c548161105560075490565b61105f91906125a9565b11156110a45760405162461bcd60e51b81526020600482015260146024820152734d617820737570706c792065786365656465642160601b604482015260640161084e565b600e5460ff16156110f75760405162461bcd60e51b815260206004820152601760248201527f54686520636f6e74726163742069732070617573656421000000000000000000604482015260640161084e565b81600b5461110591906125d5565b34101561114a5760405162461bcd60e51b8152602060048201526013602482015272496e73756666696369656e742066756e64732160681b604482015260640161084e565b6109c633836119d0565b6109c6338383611a0d565b600a8054610de490612637565b6006546001600160a01b031633146111965760405162461bcd60e51b815260040161084e90612523565b600d55565b6111a533836116eb565b6111c15760405162461bcd60e51b815260040161084e90612558565b6111cd84848484611adc565b50505050565b6000818152600260205260409020546060906001600160a01b03166112525760405162461bcd60e51b815260206004820152602f60248201527f4552433732314d657461646174613a2055524920717565727920666f72206e6f60448201526e3732bc34b9ba32b73a103a37b5b2b760891b606482015260840161084e565b600e54610100900460ff166112f357600a805461126e90612637565b80601f016020809104026020016040519081016040528092919081815260200182805461129a90612637565b80156112e75780601f106112bc576101008083540402835291602001916112e7565b820191906000526020600020905b8154815290600101906020018083116112ca57829003601f168201915b50505050509050610742565b60006112fd611b0f565b9050600081511161131d576040518060200160405280600081525061134b565b8061132784611b1e565b600960405160200161133b9392919061225c565b6040516020818303038152906040525b9392505050565b6060600f805480602002602001604051908101604052809291908181526020016000905b828210156114af57838290600052602060002090600202016040518060e00160405290816000820180546113a990612637565b80601f01602080910402602001604051908101604052809291908181526020018280546113d590612637565b80156114225780601f106113f757610100808354040283529160200191611422565b820191906000526020600020905b81548152906001019060200180831161140557829003601f168201915b5050509183525050600191820154600081810b810b810b6020808501919091526101008304820b820b820b6040850152620100008304820b820b820b606085015263010000008304820b820b820b60808501526401000000008304820b820b820b60a085015265010000000000909204810b810b900b60c090920191909152918352929092019101611376565b50505050905090565b6006546001600160a01b031633146114e25760405162461bcd60e51b815260040161084e90612523565b600e80549115156101000261ff0019909216919091179055565b8160008111801561150f5750600d548111155b6115525760405162461bcd60e51b8152602060048201526014602482015273496e76616c6964206d696e7420616d6f756e742160601b604482015260640161084e565b600c548161155f60075490565b61156991906125a9565b11156115ae5760405162461bcd60e51b81526020600482015260146024820152734d617820737570706c792065786365656465642160601b604482015260640161084e565b6006546001600160a01b031633146115d85760405162461bcd60e51b815260040161084e90612523565b61098482846119d0565b6006546001600160a01b0316331461160c5760405162461bcd60e51b815260040161084e90612523565b6001600160a01b0381166116715760405162461bcd60e51b815260206004820152602660248201527f4f776e61626c653a206e6577206f776e657220697320746865207a65726f206160448201526564647265737360d01b606482015260840161084e565b61167a8161197e565b50565b600081815260046020526040902080546001600160a01b0319166001600160a01b03841690811790915581906116b282610e72565b6001600160a01b03167f8c5be1e5ebec7d5bd14f71427d1e84f3dd0314c0f7b2291e5b200ac8c7c3b92560405160405180910390a45050565b6000818152600260205260408120546001600160a01b03166117645760405162461bcd60e51b815260206004820152602c60248201527f4552433732313a206f70657261746f7220717565727920666f72206e6f6e657860448201526b34b9ba32b73a103a37b5b2b760a11b606482015260840161084e565b600061176f83610e72565b9050806001600160a01b0316846001600160a01b031614806117aa5750836001600160a01b031661179f846107d9565b6001600160a01b0316145b806117da57506001600160a01b0380821660009081526005602090815260408083209388168352929052205460ff165b949350505050565b826001600160a01b03166117f582610e72565b6001600160a01b0316146118595760405162461bcd60e51b815260206004820152602560248201527f4552433732313a207472616e736665722066726f6d20696e636f72726563742060448201526437bbb732b960d91b606482015260840161084e565b6001600160a01b0382166118bb5760405162461bcd60e51b8152602060048201526024808201527f4552433732313a207472616e7366657220746f20746865207a65726f206164646044820152637265737360e01b606482015260840161084e565b6118c660008261167d565b6001600160a01b03831660009081526003602052604081208054600192906118ef9084906125f4565b90915550506001600160a01b038216600090815260036020526040812080546001929061191d9084906125a9565b909155505060008181526002602052604080822080546001600160a01b0319166001600160a01b0386811691821790925591518493918716917fddf252ad1be2c89b69c2b068fc378daa952ba7f163c4a11628f55a4df523b3ef91a4610984565b600680546001600160a01b038381166001600160a01b0319831681179093556040519116919082907f8be0079c531659141344cd1fd0a4f28419497f9722a3daafe3b4186f6b6457e090600090a35050565b60005b81811015610984576119e9600780546001019055565b6119fb836119f660075490565b611c39565b80611a0581612672565b9150506119d3565b816001600160a01b0316836001600160a01b03161415611a6f5760405162461bcd60e51b815260206004820152601960248201527f4552433732313a20617070726f766520746f2063616c6c657200000000000000604482015260640161084e565b6001600160a01b03838116600081815260056020908152604080832094871680845294825291829020805460ff191686151590811790915591519182527f17307eab39ab6107e8899845ad3d59bd9653f200f220920489ca2b5937696c31910160405180910390a3505050565b611ae78484846117e2565b611af384848484611c53565b6111cd5760405162461bcd60e51b815260040161084e906124d1565b60606008805461075690612637565b606081611b4357506040805180820190915260018152600360fc1b6020820152610742565b8160005b8115611b6d5780611b5781612672565b9150611b669050600a836125c1565b9150611b47565b60008167ffffffffffffffff811115611b9657634e487b7160e01b600052604160045260246000fd5b6040519080825280601f01601f191660200182016040528015611bc0576020820181803683370190505b5090505b84156117da57611bd56001836125f4565b9150611be2600a8661268d565b611bed9060306125a9565b60f81b818381518110611c1057634e487b7160e01b600052603260045260246000fd5b60200101906001600160f81b031916908160001a905350611c32600a866125c1565b9450611bc4565b6109c6828260405180602001604052806000815250611d60565b60006001600160a01b0384163b15611d5557604051630a85bd0160e11b81526001600160a01b0385169063150b7a0290611c9790339089908890889060040161231e565b602060405180830381600087803b158015611cb157600080fd5b505af1925050508015611ce1575060408051601f3d908101601f19168201909252611cde91810190612194565b60015b611d3b573d808015611d0f576040519150601f19603f3d011682016040523d82523d6000602084013e611d14565b606091505b508051611d335760405162461bcd60e51b815260040161084e906124d1565b805181602001fd5b6001600160e01b031916630a85bd0160e11b1490506117da565b506001949350505050565b611d6a8383611d93565b611d776000848484611c53565b6109845760405162461bcd60e51b815260040161084e906124d1565b6001600160a01b038216611de95760405162461bcd60e51b815260206004820181905260248201527f4552433732313a206d696e7420746f20746865207a65726f2061646472657373604482015260640161084e565b6000818152600260205260409020546001600160a01b031615611e4e5760405162461bcd60e51b815260206004820152601c60248201527f4552433732313a20746f6b656e20616c7265616479206d696e74656400000000604482015260640161084e565b6001600160a01b0382166000908152600360205260408120805460019290611e779084906125a9565b909155505060008181526002602052604080822080546001600160a01b0319166001600160a01b03861690811790915590518392907fddf252ad1be2c89b69c2b068fc378daa952ba7f163c4a11628f55a4df523b3ef908290a46109c6565b828054611ee290612637565b90600052602060002090601f016020900481019282611f045760008555611f4a565b82601f10611f1d57805160ff1916838001178555611f4a565b82800160010185558215611f4a579182015b82811115611f4a578251825591602001919060010190611f2f565b50611f56929150611f5a565b5090565b5b80821115611f565760008155600101611f5b565b600067ffffffffffffffff80841115611f8a57611f8a6126cd565b604051601f8501601f19908116603f01168101908282118183101715611fb257611fb26126cd565b81604052809350858152868686011115611fcb57600080fd5b858560208301376000602087830101525050509392505050565b80356001600160a01b038116811461074257600080fd5b8035801515811461074257600080fd5b60006020828403121561201d578081fd5b61134b82611fe5565b60008060408385031215612038578081fd5b61204183611fe5565b915061204f60208401611fe5565b90509250929050565b60008060006060848603121561206c578081fd5b61207584611fe5565b925061208360208501611fe5565b9150604084013590509250925092565b600080600080608085870312156120a8578081fd5b6120b185611fe5565b93506120bf60208601611fe5565b925060408501359150606085013567ffffffffffffffff8111156120e1578182fd5b8501601f810187136120f1578182fd5b61210087823560208401611f6f565b91505092959194509250565b6000806040838503121561211e578182fd5b61212783611fe5565b915061204f60208401611ffc565b60008060408385031215612147578182fd5b61215083611fe5565b946020939093013593505050565b60006020828403121561216f578081fd5b61134b82611ffc565b600060208284031215612189578081fd5b813561134b816126e3565b6000602082840312156121a5578081fd5b815161134b816126e3565b6000602082840312156121c1578081fd5b813567ffffffffffffffff8111156121d7578182fd5b8201601f810184136121e7578182fd5b6117da84823560208401611f6f565b600060208284031215612207578081fd5b5035919050565b60008060408385031215612220578182fd5b8235915061204f60208401611fe5565b6000815180845261224881602086016020860161260b565b601f01601f19169290920160200192915050565b60008451602061226f8285838a0161260b565b8551918401916122828184848a0161260b565b855492019183906002810460018083168061229e57607f831692505b8583108114156122bc57634e487b7160e01b88526022600452602488fd5b8080156122d057600181146122e15761230d565b60ff1985168852838801955061230d565b60008b815260209020895b858110156123055781548a8201529084019088016122ec565b505083880195505b50939b9a5050505050505050505050565b6001600160a01b038581168252841660208201526040810183905260806060820181905260009061235190830184612230565b9695505050505050565b60208082528251828201819052600091906040908185019080840286018301878501865b8381101561241e57603f19898403018552815160e081518186526123a582870182612230565b915050888201518a0b89860152878201518a0b888601526060808301518b0b81870152506080808301516123dd8288018260000b9052565b505060a0808301516123f38288018260000b9052565b505060c0918201519161240a8682018460000b9052565b50958801959350509086019060010161237f565b509098975050505050505050565b6020808252825182820181905260009190848201906040850190845b8181101561246457835183529284019291840191600101612448565b50909695505050505050565b60006020825261134b6020830184612230565b600060e0825261249660e083018a612230565b600098890b602084015296880b60408301525093860b606085015291850b6080840152840b60a083015290920b60c090920191909152919050565b60208082526032908201527f4552433732313a207472616e7366657220746f206e6f6e20455243373231526560408201527131b2b4bb32b91034b6b83632b6b2b73a32b960711b606082015260800190565b6020808252818101527f4f776e61626c653a2063616c6c6572206973206e6f7420746865206f776e6572604082015260600190565b60208082526031908201527f4552433732313a207472616e736665722063616c6c6572206973206e6f74206f6040820152701ddb995c881b9bdc88185c1c1c9bdd9959607a1b606082015260800190565b600082198211156125bc576125bc6126a1565b500190565b6000826125d0576125d06126b7565b500490565b60008160001904831182151516156125ef576125ef6126a1565b500290565b600082821015612606576126066126a1565b500390565b60005b8381101561262657818101518382015260200161260e565b838111156111cd5750506000910152565b60028104600182168061264b57607f821691505b6020821081141561266c57634e487b7160e01b600052602260045260246000fd5b50919050565b6000600019821415612686576126866126a1565b5060010190565b60008261269c5761269c6126b7565b500690565b634e487b7160e01b600052601160045260246000fd5b634e487b7160e01b600052601260045260246000fd5b634e487b7160e01b600052604160045260246000fd5b6001600160e01b03198116811461167a57600080fdfea2646970667358221220db76122c0d24fa6d8175884bd5d9b1d37254a6a5f555533e570de8a830a8c6e664736f6c63430008020033",
  "linkReferences": {},
  "deployedLinkReferences": {}
}